:020000042000DA
:1009100030B583B00820012100F0D4FA4FF47043C1
:10092000009301238DF8043000248DF80640032342
:100930008DF805308DF807400B4D2846694600F0CC
:100940006FFC40F20F1002210622234600F054F8FB
:10095000CF2000F045F828464FF4004100F0D6FCC7
:10096000204603B030BD00BF000C02401B4B1B8B68
:1009700003F002039BB2002BF8D1184A13889BB2F4
:1009800043F480731380154B9B8A13F0010FFAD048
:100990009422124B1A82114B9B8A03F002039BB2E2
:1009A000002BF8D00D4B1A8B80B218820B4B9B8A10
:1009B00003F080039BB2002BF8D089B2074B198259
:1009C000064B9B8A03F004039BB2002BF8D0034A2A
:1009D00013889BB243F400731380704700540040A7
:1009E00010B51930C4B220202146FFF7BFFF2120E7
:1009F0002146FFF7BBFF10BD2DE9F04F87B007463A
:100A00008B4615460193854B00241C615C615C603C
:100A10001C609C601C730120014600F053FA022008
:100A2000012100F04FFA0420012100F04BFA0820C8
:100A3000012100F047FA4FF40010012100F042FAC2
:100A40004FF40010012100F067FA4FF4004001213B
:100A500000F062FA4FF01009CDF810904FF0010845
:100A60008DF814808DF8164002268DF815608DF8EB
:100A70001740DFF8B0A150460DEB090100F0D0FBA4
:100A80004FF4107304938DF815608DF814608DF891
:100A900016808DF81740DFF89C8140460DEB090168
:100AA00000F0BEFB40460621042200F03FFC404619
:100AB0000921042200F03AFC4FF4A45304938DF86A
:100AC00015608DF814608DF816408DF8174008F504
:100AD000806840460DEB090100F0A2FB404607216B
:100AE000062200F023FC40460A21062200F01EFCEC
:100AF00040460C21062200F019FCCDF810908DF82C
:100B000015608DF814608DF816408DF81740444E2E
:100B100030460DEB090100F083FB3046042106222C
:100B200000F004FCAAF81A90039403E000BF039BB2
:100B300001330393039A44F6FE739A42F6DD1022C2
:100B4000384B1A834FF40010012100F02BFA4FF4B8
:100B50000010002100F026FA334B2A229A8048F236
:100B600033021A81D2229A832B221A8440F2014244
:100B70001A8002200121FFF7F9FE0420AF21FFF7C0
:100B8000F5FE05208121FFF7F1FE06200421FFF785
:100B9000EDFEFF20FFF724FF02209E21FFF7E6FE77
:100BA0000A200021FFF7E2FE0E200421FFF7DEFEFF
:100BB00027200021FFF7DAFE1F200F21FFF7D6FEC6
:100BC0001A200A21FFF7D2FE1B200A21FFF7CEFED2
:100BD0000022164B9A8303F5FE339A6822F4000232
:100BE0009A60BF0147EA0B77C3F884701A6842F035
:100BF00080621A600E4B1B6813F0006FFAD0019BE5
:100C000045EA032545F40075ADB2084B1D844FF449
:100C100060629A8307B0BDE8F08F00BF6C130020BC
:100C200000000240000C024000540040003C004024
:100C30000038024000040240FFF76AFE70470000DF
:100C40000A4B1A6842F001021A60002199601A6882
:100C500022F0847222F480321A60054A5A601A68BF
:100C600022F480221A60D960704700BF0038024029
:100C700010300024024B00221A701870704700BF19
:100C800002380240034A136823F0F80343EAC00025
:100C90001060704700380240014B1860704700BF79
:100CA00000004742084B00221A701A70012802D037
:100CB000042804D070470122034B1A7070470522A4
:100CC000014B1A70704700BF70380240014B18602A
:100CD000704700BF800E474241EA82115B08013B2A
:100CE00041EA03410843009B40EA0361014B59601C
:100CF000704700BF00380240014B1860704700BFCA
:100D000060004742090741EA8010024BC3F88400A3
:100D1000704700BF00380240014B1860704700BFA9
:100D200068004742014B1860704700BF4C004742C3
:100D3000034A936823F0EC630843034393607047CE
:100D400000380240034A936823F078430843034382
:100D50009360704700380240034A936823F003030E
:100D600018439060704700BF00380240024B9868FB
:100D700000F00C00704700BF00380240034A93683F
:100D800023F0F00318439060704700BF0038024022
:100D9000034A936823F4E05318439060704700BF00
:100DA00000380240034A936823F4604343EAC000DA
:100DB000906070470038024010B4294B9B6803F0E4
:100DC0000C03042B05D0082B06D053BB254B036026
:100DD00029E0254B036026E0214B5A685B6803F04D
:100DE0003F0312F4800F09D01F4AB2FBF3F21C4BF1
:100DF0005B68C3F3881303FB02F208E0194AB2FBF5
:100E0000F3F3174A5168C1F3881101FB03F2144B45
:100E10005B68C3F3014301335B00B2FBF3F3036090
:100E200001E0104B03600E4A9368C3F303130F49AC
:100E3000CC5CE4B20368E34043609468C4F382246A
:100E40000C5DE4B223FA04F484609268C2F3423287
:100E50008A5CD2B2D340C3605DF8044B704700BFD8
:100E6000003802400024F40000127A005C130020D5
:100E700000F44073B3F5407F09D108498B6823F42F
:100E8000F81320F0704222F4407213438B60034B3E
:100E90001A6FC0F30B001043186770470038024008
:100EA000014B1860704700BF3C0E4742014B186071
:100EB000704700BF400E4742014B1860704700BFAB
:100EC0005C01474221B1054B1A6B10431863704710
:100ED000024A136B23EA0000106370470038024097
:100EE00021B1054B5A6B104358637047024A536B4C
:100EF00023EA0000506370470038024021B1054BDF
:100F00009A6B104398637047024A936B23EA000080
:100F1000906370470038024021B1054B1A6C1043B2
:100F200018647047024A136C23EA0000106470478B
:100F30000038024021B1054B5A6C10435864704789
:100F4000024A536C23EA00005064704700380240A4
:100F500021B1054B1A69104318617047024A1369A1
:100F600023EA0000106170470038024021B1054BB0
:100F70005A69104358617047024A536923EA0000D6
:100F8000506170470038024021B1054B9A69104307
:100F900098617047024A936923EA000090617047A4
:100FA0000038024021B1054B1A6A1043186270479D
:100FB000024A136A23EA00001062704700380240B8
:100FC00021B1054B5A6A104358627047024A536A6E
:100FD00023EA0000506270470038024021B1054BFF
:100FE0001A6D104318657047024A136D23EA00001A
:100FF000106570470038024021B1054B5A6D10430F
:1010000058657047024A536D23EA000050657047E7
:101010000038024021B1054B9A6D10439865704726
:10102000024A936D23EA0000906570470038024041
:1010300021B1054B1A6E104318667047024A136EB1
:1010400023EA0000106670470038024021B1054BCA
:101050005A6E104358667047024A536E23EA0000E6
:10106000506670470038024021B1054B1A78104392
:1010700018707047024A137823EA00001070704716
:101080000D3802404309012B02D10A4B1B6806E0D0
:10109000022B02D1074B1B6F01E0064B5B6F00F088
:1010A0001F00C34013F0010F01D001207047002042
:1010B000704700BF0038024000B583B000230193A1
:1010C0003120FFF7DFFF019B01330193019BB3F553
:1010D000A06F01D00028F3D03120FFF7D3FF08B173
:1010E000012000E0002003B05DF804FB024A536FCA
:1010F00043F080735367704700380240034BDB684E
:10110000034201D0012070470020704700380240A0
:10111000014B1870704700BF0E38024008B5374BBE
:10112000984208D101200146FFF712FF012000215B
:10113000FFF70EFF08BD324B984208D10220012173
:10114000FFF706FF02200021FFF702FF08BD2D4B2D
:10115000984208D104200121FFF7FAFE0420002163
:10116000FFF7F6FE08BD284B984208D10820012160
:10117000FFF7EEFE08200021FFF7EAFE08BD234B33
:10118000984208D110200121FFF7E2FE1020002133
:10119000FFF7DEFE08BD1E4B984208D1202001213A
:1011A000FFF7D6FE20200021FFF7D2FE08BD194B25
:1011B000984208D140200121FFF7CAFE40200021BB
:1011C000FFF7C6FE08BD144B984208D180200121CC
:1011D000FFF7BEFE80200021FFF7BAFE08BD0F4BCF
:1011E000984209D14FF480700121FFF7B1FE4FF40E
:1011F00080700021FFF7ACFE08BD00BF0000024078
:101200000004024000080240000C024000100240AE
:101210000014024000180240001C0240002002405E
:1012200070B4002239E0012393400C681C409C42BA
:1012300032D1046855000323AB40DB431C400460FB
:1012400006680C79AC40344304600C79013CE4B28C
:10125000012C14D884682340836084684B79AB40A8
:1012600023438360446896B20123B34024EA030316
:10127000436044688B79B3409BB223434360C468A6
:1012800096B276000323B34024EA0303C360C46824
:10129000CB79AB402343C36001320F2AC3D970BC62
:1012A000704700BF4FF6FF73036000230371437163
:1012B0008371C371704700BF82B04FF480330193D4
:1012C000019B0B430193019BC361C161019BC361FE
:1012D000C3690193C369019302B0704703690B426C
:1012E00001D0012070470020704700BF006980B224
:1012F000704700BF43690B4201D0012070470020B6
:10130000704700BF406980B2704700BF01837047DB
:10131000418370470AB1018370474183704700BF22
:1013200041617047436959404161704730B401F0F1
:1013300007039B009A40C908083150F821400F2547
:1013400005FA03F324EA030340F8213050F8213072
:0C1350001A4340F8212030BC704700BF59
:10135C00000000000102030401020304060708094F
:0400000520000C3992
:00000001FF
